:020000040800F2
:10000000501B0020E5090008E1090008E10900088B
:10001000E1090008E1090008E1090008000000000A
:10002000000000000000000000000000E1090008DE
:10003000E109000800000000E1090008C50400080B
:10004000E1090008E1090008E1090008E1090008E8
:10005000E1090008E1090008E1090008E1090008D8
:10006000E1090008E1090008E1090008E1090008C8
:10007000E1090008E109000871040008E10900082D
:10008000E1090008E1090008E1090008E1090008A8
:10009000E1090008E1090008E1090008E109000898
:1000A000E1090008E1090008E1090008E109000888
:1000B000E1090008E1090008E1090008E109000878
:1000C000E1090008E1090008E1090008E109000868
:1000D000450700089D040008E1090008E10900083F
:1000E000E1090008E1090008E1090008000000003A
:1000F0000000000000000000000000000000000000
:1001000000000000000000005FF808F110B5054C89
:10011000237833B9044B13B10448AFF300800123B3
:10012000237010BD4004002000000000381F0008AC
:10013000084B10B51BB108490848AFF300800848C8
:10014000036803B910BD074B002BFBD0BDE810407E
:10015000184700BF0000000044040020381F0008BA
:100160003C040020000000002D4BF0B59A692D4E94
:1001700042F004029A619A692B4942F480429A61E2
:100180005C692A4A44F001045C619C69272544F0BB
:1001900001049C6173680C2723F0040373604C68AE
:1001A000234B24F47F644C604C6806F5605644F49D
:1001B00094644C6015819781918A1E4C89B241F0FC
:1001C000C001918291891C4D89B241F40051918105
:1001D0004FF0A00E4FF48072C3F800E004365A606E
:1001E00090214FF48832C7199E60DF602160A660BD
:1001F0006A601968002241F00101196080F810233B
:1002000080F811235C6800F58871AA23C48080F807
:100210000E21C0F80C1380F80D3180F80C31F0BDC0
:100220000010024000000140000801400038014079
:100230005800024044000240000002404FF6FF72A6
:100240009142F0B580F80F1139D000F20F151D4E14
:100250000D4400F5877414F8013F5340DBB236F8C3
:100260001330A54283EA1222F5D1C2F30726D2B297
:10027000154B4418154D84F8106184F8112106318E
:100280004FF48052124C4FF0000E902700F5867606
:10029000C3F800E01F605960DE606A6022880121B7
:1002A00022F040021204120C228080F810131A6807
:1002B00042F002021A601A680A431A60F0BDFF2277
:1002C0001646D5E71C1D000844000240000002400D
:1002D0000038014090F81133002B32D190F81033E0
:1002E000F0B503F0FF0403B1F0BD2F4BC2885B688B
:1002F000934256D09BB2C3F58072417892B2C380CC
:10030000828031B18368013383608368322B88BF78
:10031000447043889BB29A42E6D090F8113303F0C0
:10032000FF01002BE0D101240325022643884778F2
:100330009BB203441B7B032F15D8DFE807F02B2764
:10034000230370470778FFB207F1010E5FFA8EFEB4
:10035000074480F800E087F80C320378042B04BFD0
:10036000417080F81143438801339BB2DFB2438070
:10037000478043889BB29A4214D090F81133002BE7
:10038000D4D0F0BD23B945700370ECE7AA2B06D09A
:100390004170E8E7AA2BE6D144708160E3E746703C
:1003A000E1E7F0BDF0BD00BF580002402C4B30B477
:1003B00019682C4A41F001011960596882B00A405D
:1003C0005A601968284A21F0847121F4803119603B
:1003D0001868002420F48020186058684FF41F0526
:1003E00020F4FE0058609D60009401941068194646
:1003F00040F010001060106820F0030010601068DA
:1004000040F0020010605A685A605A685A605A6890
:1004100042F480625A605A6822F47C125A605A6828
:1004200042F4E0125A601A6842F080721A600B6857
:100430000B4A9B01FBD51146536823F0030353601D
:10044000536843F0020353604B6803F00C03082B1E
:10045000FAD1064B4FF000629A6002B030BC704790
:10046000001002400000FFF80020024000ED00E014
:10047000074B4FF4604207495A600B68064A23F065
:1004800001030B6093899BB243F040039381704753
:10049000000002404400024000380140074A13882F
:1004A0005B060AD59389064923F0400309681B04BB
:1004B0001B0C0020938181F8200370470038014015
:1004C0005C0400209A4BF0B41868036801330360A1
:1004D000838801339BB28380C38801339BB2C3807E
:1004E00083889BB2B3F5FA7F36D0C3889BB2052BC5
:1004F00003D100220123C280037241F2E823C35CCE
:10050000002280F8362380F83523082B20D8DFE836
:1005100003F04164810596A6B7CB2B0041F2E82495
:100520008449002302251026834A80F8345380F83A
:10053000246380F825330B6080F8393393880425D1
:100540009BB243F0800301219380055580F8371357
:100550001030F0BCFFF7BEBE784A0021136883F06C
:10056000010313608180C0E741F2EA2641F2E824EA
:1005700041F2E922B0F82D33B0F83C135BBA5B1AB4
:1005800003259BB20121835305558154F0BC1030E3
:10059000FFF7A0BE41F2E824664DFF2300220526A6
:1005A000654980F8346380F8243380F8253380F877
:1005B000263380F8273380F828332A6080F83923DF
:1005C0008B8801229BB243F080038B80025580F818
:1005D0003723F0BC1030FFF77DBE41F2E825554CC3
:1005E000002310260222544980F8342380F8246323
:1005F00080F82533236080F839338B8801249BB23F
:1006000043F080038B80425580F837431030F0BCB4
:10061000FFF760BE90F82D3303F00F030B2B68D06B
:10062000B0F83A3301339BB20A2BA0F83A335BD9C6
:1006300041F2E82200238354A0F83A3388E790F887
:100640002D3303F00F030B2B5BD0B0F83A3301339B
:100650009BB20A2BA0F83A337FF67AAFE8E7384E20
:10066000344900230425344A80F83453C0F8246305
:100670000B6080F8393341F2E824938807255FE75F
:100680002C4900230225042720262B4A80F83453C6
:1006900080F8247380F825630B6080F8393341F2C9
:1006A000E824938805254BE741F2E825214C0221F7
:1006B00080F8241380260023202703221E4980F877
:1006C000342380F8257380F82663236080F839335B
:1006D0008B8801249BB233438B80425580F837438B
:1006E0001030F0BCFFF7F6BD41F2E8230122C254FE
:1006F0002EE741F2E822062100238154A0F83A3384
:1007000026E70C490023032511260B4A80F83453B1
:10071000A0F83A3380F8253380F8263380F8246334
:100720000B6080F8393341F2E8249388082507E705
:100730005C040020B0812142003800408001214249
:1007400003800200F0B4A24CA24B22891B6892B233
:10075000910702D593F83713A9B9D20711D593F8A9
:1007600036239B48D2B2511CC9B283F83613818913
:100770001A4482F82C1393F8361393F834239142D9
:100780001CD2F0BC704793F83513C9B2481CC0B2F4
:1007900083F83503194491F82413A18193F83503A4
:1007A00093F834138842D8D3A188002021F0800127
:1007B0000904090CA18083F83703CEE741F2E8224F
:1007C000854C9A5C0120002183F83903206083F86E
:1007D000361383F83513082AD3D8DFE802F0183827
:1007E000526681C897AB050041F2EA2641F2E92141
:1007F00041F2E824B3F82D23B3F83C0352BA121A9D
:1008000092B2012003259A531D555854B9E741F27D
:10081000E824714DFF2200216D48052683F83463DA
:1008200083F8242383F8252383F8262383F82723BA
:1008300083F82823296083F839138288012192B232
:1008400042F080028280195583F8371399E741F20C
:10085000E825614C002202215D48102683F83413FC
:1008600083F8246383F82523226083F83923828860
:10087000012492B242F080028280595583F83743B6
:100880007FE793F82D2302F00F020B2A00F09780E8
:10089000B3F83A23013292B20A2AA3F83A232ED8A7
:1008A00041F2E822012199546BE741F2E8244A48D9
:1008B000002202251026464983F8345383F8246326
:1008C00083F82523026083F839238A88042592B2AD
:1008D00042F0800201208A801D5583F8370350E7DB
:1008E00093F82D2302F00F020B2A51D0B3F83A23CC
:1008F000013292B20A2AA3F83A237FF642AF41F2BC
:10090000E82100225A54A3F83A233AE73248002259
:100910000225042720262E4983F8345383F82473B4
:1009200083F82563026083F8392341F2E8248A883A
:100930000525CCE741F2E825274C022083F8240363
:100940000022802603212248202783F8341383F8CD
:10095000257383F82663226083F839238288012473
:1009600092B232438280595583F8374309E71B4ED0
:10097000194800220425164983F83453C3F8246328
:10098000026083F8392341F2E8248A8807259EE72C
:1009900011480022032511260D4983F83453A3F88A
:1009A0003A2383F8252383F8262383F824630260FF
:1009B00083F8392341F2E8248A88082587E741F241
:1009C000E821062000225854A3F83A23D9E600BFB4
:1009D000003800405C040020B08121420380020006
:1009E000FEE700BF08B50D480D4B984207D2C24341
:1009F0001A4422F0030204320A4901F03BF80A4883
:100A00000A494FF000028842B8BF40F8042BFADBD5
:100A1000FFF7CCFCBDE8084000F00AB80000002059
:100A2000400400200020000840040020501700204F
:100A3000F8B5454C454F231D2360FFF7B7FC444AEA
:100A40004449454BF0265760002581F82360072074
:100A500010214FF480472026956010601F6004F13C
:100A600014005E605960FFF77FFB41F2E42C41F215
:100A7000E82E3A4A40F22737D16941F2ED2641F497
:100A80008041D1619169364B41F00801A4F83E5391
:100A90009161D96841F2EC2021F4704121F0030109
:100AA000D960196821F0FC011960596889B2596050
:100AB000196844F80C5041F010011960596844F865
:100AC0000E5041F0144141F411015960A3F5544313
:100AD0001F801988DFF894E089B2012741F04001B6
:100AE0001980CEF80070A55584F8385399899988F3
:100AF00005F1804589B241F040019980936905F57F
:100B0000843543F0040393612B684FF4EC4123F0E8
:100B1000FF0327542B60A4F840132B6843F02203F3
:100B20002B6062B625460F4E94F82533002BFBD080
:100B3000D5F82033328802211A800B48FFF77EFB5C
:100B4000002385F82533EFE75C0400203F190100FE
:100B500010E000E000ED00E000E100E000100240E5
:100B6000000C01404A1700207004002084812142BB
:100B7000024B00225A811A815A6070475C0400209F
:100B800003685A004CBF43F0004323F0004318446D
:100B9000704700BF61B32DE9F84F01F1FF3A90466D
:100BA0000646D146002707EB090404EBD474641011
:100BB000E50071190846FFF7E3FFA245834605F1FA
:100BC0000800304409D0FFF7DBFFC34500F1FF30D8
:100BD00005D8404509D2671CE5E7C34505D9A742BA
:100BE00002D004F1FF39DEE700210846BDE8F88FA6
:100BF00008467047012807D0022807D0044B002878
:100C00000CBF1846002070470248704702487047E2
:100C1000091300080D1300081113000830B5254B07
:100C200083B004468D1E7BB301A92846AFF3008034
:100C300020B301992A46FFF7ADFF0146F0B1FFF757
:100C40009FFF4B68A064012B12D0002B01F1040020
:100C500021DBFFF795FF0023E06423650368002B89
:100C60001DDBFFF78DFF00232061184603B030BD68
:100C7000002323610523184603B030BD0023236100
:100C80000923184603B030BD0B490C4B0846591ACE
:100C9000C9100191CEE70123E0642365DEE7C3F3C9
:100CA0000360FFF7A7FF0028206114BF002309237A
:100CB000DBE700BF00000000381F0008002000082C
:100CC000036810B5DA07044606D49B0700F1480014
:100CD00009D500F05BFC2368590709D51A070ED522
:100CE000DB0613D510BD00F049FC23685907F5D485
:100CF00004F1D00000F052FC23681A07F0D404F588
:100D0000A87000F053FC2368DB06EBD404F5E87010
:100D1000BDE8104000F08EBC03680BB1184470476A
:100D20001846704709207047704700BF70B50446E9
:100D30000D4608E02A6C2369626121462A4601209B
:100D40009847082808D1296C2046FFF767FF064618
:100D50000028EFD000F086FE0728FBD13046296C32
:100D6000FFF7E2FF281D00F0FDFB00BF2DE9F04773
:100D70000646ADF5727D03AD0C1D17460FCC0FC5B1
:100D80000FCC0FC50FCC0FC594E80F0002ACD6F8FE
:100D90000C80D6F8189085E80F0000233046216CAF
:100DA0002360FFF73BFF0546002F14BF0A270927E2
:100DB0007DB1A36B47F010018DE8100232466364E9
:100DC00001203346C04778BB28460DF5727DBDE84B
:100DD000F087236C4FF4F072736121467AA800F01B
:100DE00049FE33697AAA314638469847889B82463D
:100DF0008DE8100239466364324633460120C0470D
:100E000090B94FF4F0727AA9204600F033FEBAF19F
:100E1000080F06D1216C3046FFF700FF0927054671
:100E2000C6E7BAF1070F04D009200DF5727DBDE8C1
:100E3000F0872846216CFFF777FF03A800F092FBAC
:100E4000406C7047F0B5CB6BF9B00B640E1D01AD73
:100E50000F4604460FCE0FC50FCE0FC50FCE0FC5E0
:100E600096E80F004FF0FF3685E80F00009606E089
:100E700023696A46214698470828054608D11099F3
:100E80002046FFF7CBFE0028F2D0092079B0F0BD54
:100E90006846FFF715FF062DF7D139462046FFF7C4
:100EA00045FF00BF30B4DD6BC160826119461D642F
:100EB000002230BC5AE700BF70B54369C6680B64B6
:100EC00026B10122FFF752FF00F0CCFD03690A466C
:100ED00004460D46014602209847072807D00828F7
:100EE00003D129462046FFF721FF00F0BBFD304625
:100EF000296CFFF719FF281D00F034FBC2682AB1E6
:100F000010B4CC6B00220C6410BC2FE79AE700BF32
:100F1000704700BF836813B101460120184770472E
:100F200000B5042907D8DFE801F003090609090024
:100F30000BB90F2A05D902205DF804FB01205DF8EA
:100F400004FB00EB820252681846019B1A605DF8B0
:100F500004FB00BF10B584B0002303AC0A46009424
:100F60001946FFF7DDFF039804B010BD00B5042952
:100F700007D8DFE801F00309060909000BB90F2AB9
:100F800005D902205DF804FB01205DF804FB0199FE
:100F900000EB82020968184651605DF804FB00BF4F
:100FA00010B584B004AC44F8042D00230A46009424
:100FB0001946FFF7DBFF04B010BD00BFF0B5D36BDF
:100FC000ADF50F7D1364151D17AC07460E460FCD0A
:100FD0000FC40FCD0FC40FCD0FC495E80F004FF015
:100FE000FF3584E80F00169511E016A86A46FFF752
:100FF000D7FF314616A8B84780B9049B16AA6946A0
:10100000082098470528044609D0092806D02699C3
:101010006846FFF703FE0C210028E6D0092416A835
:10102000FFF74EFE20460DF50F7DF0BD2DE9F04F88
:10103000CC6C914622688BB004340D46079208941C
:1010400000F0030B1E46002B64D11202032307920B
:101050008DF825608DF824302B6DBBF1020F08BF91
:10106000AC6B13F0010343D100F00800C2B203924D
:1010700001932768002F3DD0022E47D02788B4F86F
:1010800002800434AB6C28F0010A0F2148469A44D0
:10109000FFF760FF824537D827F001039A44504597
:1010A0002CBF002001204FEA480808F0020807F092
:1010B000010748EA0708B8F1010F41D038D3B8F169
:1010C000020F1DD1236823F000420292BBF1000FF2
:1010D00079D130B10399002900F08180002A00F015
:1010E000A880002B79DB029B013304EB8304C0E76B
:1010F00000230193022E40DDFFF714FE002842D0AA
:1011000009200BB0BDE8F08F0020CCE7D4F80480B4
:101110000834B7E7022B9FDC130CD9B212048DF808
:101120002530022304EB810407928DF8243093E7E5
:10113000BBF1000F02D0002840F0B080043498E7E3
:10114000BBF1000F26D1B0B194E80C00991C4FEA16
:10115000D272D5D005F158010133069100F0948088
:10116000201DFFF7D9FD06AB01462846AFF30080EE
:10117000002840F0B88008347BE707A9484600F013
:10118000F3FA0028BCD1019B002B5CD108200BB0E6
:10119000BDE8F08F0D2148462F6AFFF7DBFE87423E
:1011A000E9D1AB6A9C42E6D12046FFF7E9FC0F216A
:1011B00002464846FFF7F4FE48462A460021FFF75C
:1011C000EFFE07209DE70D2148462F6AFFF7C2FE7C
:1011D000874248D02368002B85DA043483E7029BDA
:1011E0003BB305F15803271DCDF810B0DDF80C8096
:1011F000A346DDF808A01C46059602E0B245B046BD
:1012000016D038460694FFF787FD06AB014600224C
:101210002846AFF3008008F1010604370028EDD01E
:10122000029B5C464345DDF810B0059ED2D100E03C
:101230005C4648460D21FFF78DFE069B2862AC6296
:101240006B6206205DE70F214846FFF783FE0E2103
:1012500002464846FFF7A4FE48462A4A0F21FFF7F8
:101260009FFE07204DE7AB6A9C42B3D1042202994E
:101270000027A318A962EF622A636B632368BB424D
:101280001FDB012301932EE748460D21FFF762FE85
:101290002862069B6B62AC62062032E72046FFF7AD
:1012A0006FFC04340646AC632846AFF30080002888
:1012B0003FF426AF484632460F21FFF771FE072064
:1012C0001FE70846013004EB8000FFF759FC0F21AF
:1012D00002464846FFF764FE48462A463946FFF76D
:1012E0005FFE07200DE707460D214846FFF732FE57
:1012F000022F2862CDD12B46069A43F82C2F6B6221
:10130000C9E700BF0000000000238FE601238DE63F
:1013100002238BE6F0B50446C5B004290DD8DFE8FA
:1013200001F057030C310F00012B4FEA124695B222
:1013300066D17219102A40F29F80022045B0F0BD9C
:10134000002BFAD1102AF8D82368D80600F1C980FA
:1013500022AE3046019200F077F9A06B019A00238B
:10136000012505FA03F1114203D00168043046F863
:1013700023100133042BF4D1A063304600F05AF956
:101380000020DBE7032BD8D1150C97B2EB19102BFB
:10139000D3D823681E0700F1B88022AE30467F0004
:1013A00000F026F906EBC5027B1EA56B57B1294656
:1013B000043A51F8040B013B42F8040F581CF8D1D1
:1013C00005EB87053046A56300F0F0F80020B5E78F
:1013D000002BB2D1A56B97B2201D012606FA03F1AE
:1013E000394203F1010302D0296804350160102B52
:1013F00000F10400F2D112F400503BD1A5639DE747
:10140000052B9AD17719202F97D80F2E65D92F4603
:10141000002D48D12A460027002AA06B71DD00EB81
:10142000C202014644A800EBC6008C3851F8045BA8
:10143000914240F8045FF9D1084697B13246102E28
:1014400044A938BF102201EBC202A2F5C472790090
:10145000043A00EB810150F8045B814242F8045FDA
:10146000F9D1012B47D00F2EA16332D917B102A8B1
:1014700000F094F8002061E70F2E3FF65EAF0027E2
:101480002268D1070DD522F00101052B21600193BF
:10149000204652D022F0030240F8482B00F072F8A8
:1014A000019B002F51D02268510736D4012B3ED02A
:1014B0000F2E06D822A8019300F06CF8019B002F94
:1014C000A8D002A8019300F06DF8019BC6F11002AC
:1014D000A2E722A800F05AF8C8E7102FCFD9103F92
:1014E000CEE723F01003236004F5E870019200F0CA
:1014F000ABF8019A2CE70431A16322A800F03EF872
:10150000B8E7002F9AD10146ABE723F00803236028
:1015100004F5A87000F06CF83FE7204622F00402C2
:1015200040F8D02B019300F03DF8019BBEE722A8C4
:10153000019300F027F8019BC8E741F0020140F851
:10154000481B00F027F8019BABE7012B03D00F2EBF
:101550003FF660AFAEE722A8019300F013F8019BBD
:1015600058E700BF00F1340191E838009C46A646D8
:101570004CF8045D90E8FF0FE54600BD90EC210BB0
:10158000704700BF80EC210B704700BF90EC200B30
:10159000704700BF80EC200B704700BFD0EC200BE1
:1015A000704700BFC0EC200B704700BFF0EC020199
:1015B000F0EC0211F0EC0221F0EC0231F0EC02410F
:1015C000F0EC0251F0EC0261F0EC0271F0EC0281FF
:1015D000F0EC0291F0EC02A1F0EC02B1F0EC02C1EF
:1015E000F0EC02D1F0EC02E1F0EC02F1704700BF48
:1015F000E0EC0201E0EC0211E0EC0221E0EC02314F
:10160000E0EC0241E0EC0251E0EC0261E0EC02713E
:10161000E0EC0281E0EC0291E0EC02A1E0EC02B12E
:10162000E0EC02C1E0EC02D1E0EC02E1E0EC02F11E
:10163000704700BFB0FC0181B0FC0191B0FC01A17A
:10164000B0FC01B1704700BFA0FC0181A0FC01917A
:10165000A0FC01A1A0FC01B1704700BFEC4600B5A1
:101660002DE900502DE9FF1F4FF000032DE90C007C
:1016700001A9FFF7E7FBDDF840E012B0704700BFBB
:10168000EC4600B52DE900502DE9FF1F4FF0000397
:101690002DE90C0001A9FFF70FFCDDF840E012B0C6
:1016A000704700BFEC4600B52DE900502DE9FF1F43
:1016B0004FF000032DE90C0001A9FFF71FFCDDF836
:1016C00040E012B0704700BFEC4600B52DE9005075
:1016D0002DE9FF1F4FF000032DE90C0001ABFFF7D0
:1016E000E1FBDDF840E012B0704700BFEC4600B50A
:1016F0002DE900502DE9FF1F4FF000032DE90C00EC
:1017000001AAFFF75BFCDDF840E012B0704700BFB4
:10171000037A1BB9437A43B9B02070475A1E036855
:1017200002721A020260180E70474268013B10B440
:10173000437213680321141D01721A02446002608F
:1017400010BC180E704700BF00B585B003AA002377
:10175000009219460C22FFF7E3FB039805B05DF8F1
:1017600004FB00BFF0E700BF2DE9F04306460D463D
:1017700085B04FF000082846FFF7CAFFB02804469E
:1017800000F0B48020F07F0313F0FF0320D000F0BE
:10179000F003802B7AD0902B35D0A02B48D0B02BE3
:1017A0005CD0C02B00F0898000F0F803D02B0BD167
:1017B00000F00702013242F40022052301213046E5
:1017C000FFF7A8FD0028D6D0092005B0BDE8F083BA
:1017D0000DF10C0919468700CDF800900D22304616
:1017E000FFF79EFBFFB2039B043760064CBFDF1B75
:1017F000FF180023CDF8009019460D2230460397BC
:10180000FFF7B4FBB7E700F00D030D2BDCD003AFFF
:10181000002300F00F02194600973046FFF780FBC7
:101820000023009719460D223046FFF79FFBA2E7E1
:10183000C2434FF47F6302F0070243FA02F201074A
:1018400002EA03024FF0000348BF42F48042194607
:101850003046FFF75FFD0028B6D18CE7B1284AD0AB
:10186000B22853D0B32800F0818000F0FC03B42BE1
:10187000AAD000F007020132012342F400221946E7
:101880003046FFF747FD00289ED174E72846FFF752
:101890003FFF24022043B0F5004F95D00401002300
:1018A000A2B219463046FFF735FD00288CD114F45A
:1018B000004F18BF4FF001085DE7C62862D0C72867
:1018C0006CD000F0F803C02B7BD0C82800F09180CA
:1018D000C9287FF479AF2846FFF71AFF020300F00A
:1018E0000F0002F470220130024366E7B8F1000FE6
:1018F0006ED0002069E72846FFF70AFF024600285D
:101900003FF462AF10F0F003B9D05DE700230DF1B2
:101910000C090D221946CDF800903046FFF700FB68
:101920002846FFF7F5FE02064FF002040CD5039B94
:1019300000F07F00A040034428460393FFF7E8FE31
:10194000030604F10704F2D4039B00F07F0000FAC1
:1019500004F203F5017400231444CDF800901946F5
:101960000D2230460394FFF701FB04E72846FFF7FA
:10197000CFFE010300F00F0001F47021421C01238F
:101980000A437CE72846FFF7C3FE010300F00F007F
:1019900001F47021421C03230A4370E72846FFF735
:1019A000B7FE024600283FF40FAF10F0F0037FF4BB
:1019B0000BAF04213046FFF7ADFC00287FF404AFE5
:1019C000D9E600F00F020132032342F4202256E749
:1019D00003AC43460E22414600943046FFF7A0FA7E
:1019E0000094304643460F224146FFF7BFFA404677
:1019F000EBE62846FFF78CFE00F0F00200F00F0344
:101A00001032013343EA0232D7E600BF10B5C36C8F
:101A100084B003205A688DF80C00DC791202083378
:101A2000084601A901928DF80D400293FFF79CFE34
:101A300004B010BD08B5FFF795FE806C08BD00BF6F
:101A400008B5FFF78FFEC36CD87903EB8000083030
:101A500008BD00BF08B500F005F800BF08B5FFF7E6
:101A6000F9FF00BF08B5062000F0A6F8012000F03D
:101A700047F900BF844641EA000313F0030349D14C
:101A8000403A23D30B6803604B6843608B688360E4
:101A9000CB68C3600B6903614B6943618B698361E8
:101AA000CB69C3610B6A03624B6A43628B6A8362D0
:101AB000CB6AC3620B6B03634B6B43638B6B8363B8
:101AC000CB6BC36340304031403ADBD230320BD372
:101AD0000B6803604B6843608B688360CB68C360AE
:101AE00010301031103AF3D20C3205D351F8043BC8
:101AF00040F8043B043AF9D2043208D0D2071CBFA4
:101B000011F8013B00F8013B01D30B8803806046CC
:101B1000704700BF082A13D38B07B1D010F003031E
:101B2000AED0C3F10403D21ADB071CBF11F8013B8E
:101B300000F8013BA4D331F8023B20F8023B9FE7B9
:101B4000043AD9D3013A11F8013B00F8013BF9D22C
:101B50000B7803704B7843708B78837060467047C6
:101B60001F2938B522D8D0F8DC2205460C469AB198
:101B700052F8213083B1012B0CD0591C06D000251E
:101B8000204642F824509847284638BD1623036063
:101B9000012038BD002038BD284600F029F8224633
:101BA00001462846BDE8384000F00EB81623036011
:101BB0004FF0FF3038BD00BF024B01461868FFF7F9
:101BC000CFBF00BF2804002038B50B46074C0546A0
:101BD000114618460023236000F08AF8431C00D009
:101BE00038BD2368002BFBD02B6038BD4C1700207C
:101BF00000F076B8024B13B1024800F005B8704708
:101C000000000000151C0008002301461A46184673
:101C100000F014B838B5074D074C2C1BA41005D0A4
:101C2000013C55F8043D9847002CF9D1BDE83840F7
:101C300000F06EB83C040020380400202DE9F04785
:101C4000254C064625688846D5F84841924699466F
:101C5000C4B360681F2817DC411C76B104EB800315
:101C6000C3F888A0D4F88851012282401543022E7F
:101C7000C4F88851C3F808911ED0831C616000200D
:101C800044F82380BDE8F087144B03B34FF4C870C9
:101C9000AFF300800446D0B1D5F84831002784E87E
:101CA00088003846C5F848410121C4F88871C4F855
:101CB0008C71002EE1D0D1E7D4F88C311A43C4F8EE
:101CC0008C21DAE705F5A674C5F84841C1E74FF065
:101CD000FF30BDE8F08700BF1C1F000800000000B7
:101CE000024B58221A604FF0FF3070474C1700200B
:101CF000024B58221A604FF0FF3070474C170020FB
:101D0000FEE700BFF8B500BFF8BC08BC9E467047B0
:101D1000F8B500BFF8BC08BC9E4670470000C1C0C3
:101D200081C1400101C3C003800241C201C6C00697
:101D3000800741C70005C1C581C4400401CCC00C67
:101D4000800D41CD000FC1CF81CE400E000AC1CA27
:101D500081CB400B01C9C009800841C801D8C01817
:101D6000801941D9001BC1DB81DA401A001EC1DE97
:101D700081DF401F01DDC01D801C41DC0014C1D487
:101D800081D5401501D7C017801641D601D2C012A7
:101D9000801341D30011C1D181D0401001F0C03077
:101DA000803141F10033C1F381F240320036C1F697
:101DB00081F7403701F5C035803441F4003CC1FC67
:101DC00081FD403D01FFC03F803E41FE01FAC03A27
:101DD000803B41FB0039C1F981F840380028C1E857
:101DE00081E9402901EBC02B802A41EA01EEC02E97
:101DF000802F41EF002DC1ED81EC402C01E4C02487
:101E0000802541E50027C1E781E640260022C1E2A6
:101E100081E3402301E1C021802041E001A0C060B6
:101E2000806141A10063C1A381A240620066C1A696
:101E300081A7406701A5C065806441A4006CC1AC66
:101E400081AD406D01AFC06F806E41AE01AAC06A26
:101E5000806B41AB0069C1A981A840680078C1B816
:101E600081B9407901BBC07B807A41BA01BEC07E96
:101E7000807F41BF007DC1BD81BC407C01B4C07486
:101E8000807541B50077C1B781B640760072C1B2A6
:101E900081B3407301B1C071807041B00050C190F6
:101EA000819140510193C053805241920196C05696
:101EB000805741970055C19581944054019CC05C66
:101EC000805D419D005FC19F819E405E005AC19A26
:101ED000819B405B0199C059805841980188C04856
:101EE00080494189004BC18B818A404A004EC18E96
:101EF000818F404F018DC04D804C418C0044C18486
:101F0000818540450187C047804641860182C042A5
:101F1000804341830041C181818040400000002016
:101F200008B10181B0B000840000000008B1018157
:081F3000B0B0008400000000C5
:101F380030E2FF7F01000000F0EAFF7FAB08B180CC
:101F480028ECFF7F01000000CCECFF7FB0A90280E5
:101F580068EDFF7FB0B0A880B8EDFF7F01000000FA
:101F6800C4EDFF7FB0B0AA80FCEDFF7FAE71B280F8
:101F7800C8EEFF7F01000000C4EEFF7FAB3F388052
:101F88001CEFFF7F0100000028EFFF7FB0B0AA80A0
:101F980064EFFF7F010000001CF0FF7FAB0EB280F2
:101FA80084F0FF7FB0AF0A8058F3FF7F0100000084
:101FB8005CF3FF7FAB3F0480A4F5FF7F01000000C6
:101FC80080F7FF7F0084048094F7FF7F0100000002
:101FD80090F7FF7FB0AD04802CFAFF7FB0A8038094
:101FE8004CFAFF7F34FFFF7F50FAFF7F38FFFF7FF7
:081FF8005CFAFF7F010000000C
:1020000000000000EC02002054030020BC0300206C
:1020100000000000000000000000000000000000C0
:1020200000000000000000000000000000000000B0
:1020300000000000000000000000000000000000A0
:102040000000000000000000000000000000000090
:102050000000000000000000000000000000000080
:102060000000000000000000000000000000000070
:102070000000000000000000000000000000000060
:102080000000000000000000000000000000000050
:102090000000000000000000000000000000000040
:1020A000000000000000000001000000000000002F
:1020B0000E33CDAB34126DE6ECDE05000B000000F4
:1020C0000000000000000000000000000000000010
:1020D0000000000000000000000000000000000000
:1020E00000000000000000000000000000000000F0
:1020F00000000000000000000000000000000000E0
:10242000000000000000000000000020F51B000874
:1024300031010008710B00080D01000800000000C8
:0400000508000000EF
:00000001FF
