:020000040800F2
:10000000701B0020A50C0008050D0008050D000858
:10001000050D0008050D0008050D00080000000092
:10002000000000000000000000000000050D0008B6
:10003000050D000800000000050D0008790C0008FF
:10004000050D0008050D0008050D0008050D000848
:10005000050D0008050D0008050D0008050D000838
:10006000050D0008050D0008050D0008050D000828
:10007000050D0008050D0008490C0008050D0008D5
:10008000050D0008050D0008050D0008050D000808
:10009000050D0008050D0008050D0008050D0008F8
:1000A000050D0008050D0008050D0008050D0008E8
:1000B000050D0008050D0008050D0008050D0008D8
:1000C000050D0008050D0008050D0008050D0008C8
:1000D0008D0C0008610C0008050D0008050D0008D6
:1000E000050D0008050D0008050D000800000000C2
:1000F0000000000000000000000000000000000000
:1001000000000000000000005FF808F110B5054C89
:10011000237833B9044B13B10448AFF300800123B3
:10012000237010BD400400200000000004230008DC
:1001300008B5064B1BB106480649AFF300800648D8
:10014000036813B1054B03B1984708BD00000000D8
:1001500004230008440400203C04002000000000A8
:1001600080B483B000AF7860314B314A926942F07D
:1001700004029A612E4B2E4A926942F480429A619F
:100180002B4B2B4A526942F001025A61284B284AF4
:10019000926942F001029A61264B264A526822F087
:1001A00004025A60244B244A526822F47F625A6047
:1001B000214B214A526842F494625A601F4B4FF41B
:1001C0009C721A811D4B0C229A811C4B1B4A928AED
:1001D00092B242F0C00292B29A82184B174A9289A8
:1001E00092B242F4005292B29A81154BA0221A6048
:1001F000134B4FF480725A60114B124A9A60104BA5
:100200007A680C32DA60104B90221A600E4B0D4A5D
:100210009A600E4B4FF488325A60094B084A1268B4
:1002200042F001021A600C37BD465DF8047B70474E
:100230000010024000000140000801400038014069
:1002400058000240043801404400024000000240CF
:1002500080B582B000AF78607868FFF781FF7B6877
:10026000002283F810237B68002283F811230E4BB1
:100270005B689AB27B68DA807B6803F20F127B6856
:10028000C3F80C237B68AA2283F80D217B6893F8BE
:100290000D217B6883F80C217B68002283F80E21F6
:1002A0000837BD4680BD00BF5800024080B483B00F
:1002B00000AF78600B467B80174B00221A60164B0C
:1002C00090221A60144B7A8803325A60124B7A6873
:1002D00002F58672DA60114B4FF480525A60104B6F
:1002E0000F4A128892B222F0400292B21A807B68C2
:1002F000012283F81023084B074A126842F00202D9
:100300001A60054B044A126842F001021A600C3769
:10031000BD465DF8047B7047440002400000024087
:100320000038014080B485B000AF78607B6893F8F6
:100330001133DBB2002B05D17B6893F81033DBB2AD
:10034000002B01D0012300E00023002B00D0A9E006
:10035000574B5B68FB607B68DB881A46FB689A42F8
:1003600000F0A080FB689AB27B68DA80FB689BB2E1
:10037000C3F580739AB27B689A807B685B78DBB246
:10038000002B0CBF00230123DBB2002B10D07B68B5
:100390009B685A1C7B689A607B689B68322B94BF71
:1003A00000230123DBB2002B02D07B6800225A70AD
:1003B00063E07B685B889BB27A6813441B7BFB72AB
:1003C0007B685B78DBB2032B4BD801A252F823F099
:1003D000E1030008F50300080B04000827040008E7
:1003E000FB7AAA2B05D17B6801225A707B68002218
:1003F0009A6036E0FB7AAA2B03D17B6802225A70FE
:100400002FE07B6800225A702BE0FB7A002B06D18C
:100410007B6803225A707B6800221A7021E07B6897
:1004200000225A701DE07B681B78DBB25A1CD1B2E7
:100430007A6811707A681344FA7A83F80C227B6820
:100440001B78DBB2042B14BF00230123DBB2002B8B
:1004500006D07B6800225A707B68012283F8112342
:1004600000BF7B685B889BB201339BB27A681946F8
:100470005180DBB29AB27B685A807B689A887B682D
:100480005B889BB29A420AD07B6893F81133DBB247
:1004900083F00103DBB2002B01D0012300E0002335
:1004A000002B86D11437BD465DF8047B704700BF32
:1004B0005800024080B500AF154B154A126842F053
:1004C00001021A60124A124B5968124B0B405360DA
:1004D0000F4A0F4B1B6823F0847323F4803313609F
:1004E0000B4B0B4A126822F480221A60084B084A10
:1004F000526822F4FE025A60054B4FF41F029A60C4
:1005000000F00CF8044B4FF000629A6080BD00BF11
:10051000001002400000FFF800ED00E080B500AFE1
:1005200000F002F880BD00BF80B483B000AF0023AC
:100530007B6000233B60284B274A126842F0100280
:100540001A60254B244A126822F003021A60224BDB
:10055000214A126842F002021A60204B1F4A526878
:100560005A601E4B1D4A52685A601C4B1B4A526807
:1005700042F480625A60194B184A526822F47C1285
:100580005A60164B154A526842F4E0125A60134BF7
:10059000124A126842F080721A6000BF0F4B1B684B
:1005A00003F00073002BF9D00C4B0C4A526822F078
:1005B00003025A60094B094A526842F002025A602B
:1005C00000BF064B5B6803F00C03082BF9D10C3716
:1005D000BD465DF8047B70470020024000100240D9
:1005E00080B400AF024B1846BD465DF8047B7047EF
:1005F0008001214280B400AF024B1846BD465DF831
:10060000047B7047B081214280B483B000AF786032
:10061000074B074A928892B242F0800292B29A80C7
:100620007B680122DA740C37BD465DF8047B7047A5
:100630000038004080B483B000AF7860074B074AB1
:10064000928892B222F0800292B29A807B68002255
:10065000DA740C37BD465DF8047B70470038004003
:1006600080B582B000AF78607B6801221A627B6837
:1006700000225A6200237A68194691747A6853748A
:10068000786800F06FF80837BD4680BD80B584B04B
:1006900000AF78607B6800225A62314B1B89FB8176
:1006A000FB8903F00203002B06D07B68DB7CDBB206
:1006B000002B01D0012300E00023002B1AD0284A90
:1006C0007B685B7CDBB2591CC8B279684874796876
:1006D000CB5C93817B685B7CDAB27B681B7CDBB292
:1006E0009A4234BF00230123DBB2002B02D078688A
:1006F000FFF7A0FFFB8903F00103002B29D07B68E3
:100700009B7CDBB25A1CD1B27A689174144A9289EC
:1007100092B2D2B279680B441A727B689B7CDAB2CF
:100720007B681B7CDBB29A4234BF00230123DBB21F
:10073000002B0ED07B68012283F8DB2FFFF75AFFD6
:10074000034601221A6000237A68194691747A6878
:100750005374786800F006F81037BD4680BD00BFBE
:100760000038004080B582B000AF78607B6893F8B5
:10077000DA3F062B00F2CA8101A252F823F000BF33
:100780009D070008010800088B0800086B09000895
:1007900019090008C9090008210A00087B681B6ABA
:1007A000012B1ED17B681B6A5A1C7B681A627B680E
:1007B000FF221A707B68FF225A707B68FF229A70B2
:1007C0007B68FF22DA707B68FF221A717B68052242
:1007D0001A74FFF70FFF034600221A607868FFF7CC
:1007E00013FF7B685B7CDBB2002B14BF002301236B
:1007F000DBB2002B03D07B68012283F8DA2F85E17E
:100800007B681B6A022B1BD0032B1DD0012B00D051
:100810007CE17B6810221A707B6800225A707B682A
:1008200002221A747B681B6A5A1C7B681A62FFF7E3
:10083000E1FE034600221A607868FFF7E5FE23E038
:100840007B6803221A621FE07B685B7A03F00F0368
:100850000B2B10D07B689B6A5A1C7B689A627B6862
:100860009B6A0A2B0FDD7B68002283F8DA2F7B68F6
:1008700000229A6207E07B68042283F8DA2F7B6803
:1008800000229A62FFE700BF40E17B681B6A022BEF
:100890001BD0032B1FD0012B00D037E17B68102227
:1008A0001A707B6800225A707B6802221A747B6877
:1008B0001B6A5A1C7B681A62FFF79CFE03460022E3
:1008C0001A607868FFF7A0FE25E07B681B6A5A1C57
:1008D0007B681A621FE07B685B7A03F00F030B2BC7
:1008E00010D07B689B6A5A1C7B689A627B689B6A03
:1008F0000A2B0FDD7B68002283F8DA2F7B68002249
:100900009A6207E07B6800229A627B68062283F87D
:10091000DA2FFFE700BFF9E07B681B6A012B15D1D6
:100920007B681B6A5A1C7B681A627B6802221A74F5
:100930007B6804221A707B6820225A70FFF75AFEE7
:10094000034600221A607868FFF75EFE7B685B7CD6
:10095000DBB2002B14BF00230123DBB2002B03D03A
:100960007B68032283F8DA2FD0E07B681B6A012BB7
:100970001BD17B681B6A5A1C7B681A627B68042245
:100980001A747B6803221A707B6880225A707B6815
:1009900002229A707B680022DA70FFF72BFE034672
:1009A00000221A607868FFF72FFE7B685B7CDBB261
:1009B000002B14BF00230123DBB2002B03D07B6884
:1009C000052283F8DA2FA1E07B681B6A012B18D17E
:1009D0007B681B6A5A1C7B681A627B6803221A7444
:1009E0007B6802221A707B6820225A707B68802202
:1009F0009A70FFF7FFFD034600221A607868FFF740
:100A000003FE7B685B7CDBB2002B14BF0023012359
:100A1000DBB2002B03D07B68022283F8DA2F75E06B
:100A20007B681B6A012B18D17B681B6A5A1C7B6888
:100A30001A627B6803221A747B6811221A707B6821
:100A400000225A707B6800229A70FFF7D3FD03469C
:100A500000221A607868FFF7D7FD7B685B7CDBB209
:100A6000002B14BF00230123DBB2002B4DD07B6889
:100A70005B7A1A027B689B7A13441A467B68DA61B8
:100A80007B68DB69002B16D07B68DA697B689B8DFD
:100A90009A4207D97B68DA697B689B8DD21A7B689A
:100AA0009A610BE07B689B8D1A467B68DB69D21AE2
:100AB0007B689A6102E07B6800229A617B689A6990
:100AC0007B68C3F8E02F7B68D3F8D02F7B689969E7
:100AD0007B680C3243F822107B68D3F8D03F5A1C55
:100AE0007B68C3F8D02F7B68D3F8D03FB3F57A7F0B
:100AF00007D17B680022C3F8D02F7B680022C3F89F
:100B0000D42F7B68022283F8DA2F00BF0837BD4656
:100B100080BD00BF80B582B000AF78607868FFF715
:100B20009FFD0837BD4680BD80B483B000AF7860BC
:100B30000B4B4FF460425A600A4B0A4A126822F08B
:100B400001021A60084B084A928992B242F04002B0
:100B500092B29A810C37BD465DF8047B704700BFA6
:100B600000000240440002400038014080B483B0DD
:100B700000AF78600E4B1B889BB203F04003002B44
:100B80000CBF00230123DBB2002B0BD0084B084A1B
:100B9000928992B222F0400292B29A817B6800223E
:100BA00083F810230C37BD465DF8047B704700BF07
:100BB0000038014080B582B000AF78607B681B6868
:100BC0005A1C7B681A607B689B889BB201339AB27F
:100BD0007B689A807B68DB889BB201339AB27B6822
:100BE000DA807B689B889BB2B3F5FA7F14BF002341
:100BF0000123DBB2002B09D0FFF7F2FC03461A6891
:100C000082F001021A607B6800229A807B68DB8890
:100C10009BB2052B14BF00230123DBB2002B0BD0AA
:100C20007B680022DA807B6801221A727B6803F5F8
:100C300049731846FFF76EFF7B6810331846FFF7BD
:100C400071FB0837BD4680BD80B500AF034B1B6804
:100C500010331846FFF768FF80BD00BF5C0400201A
:100C600080B500AF034B1B6810331846FFF77EFFBB
:100C700080BD00BF5C04002080B500AF024B1B6844
:100C80001846FFF797FF80BD5C04002080B500AFD9
:100C9000034B1B6803F549731846FFF7F7FC80BD4B
:100CA0005C04002080B582B000AF114B7B60114B1B
:100CB0003B6007E03B681A1D3A607A68111D796055
:100CC00012681A603A680C4B9A42F3D30B480C49ED
:100CD0004FF000028842B8BF40F8042BFFF6FAAF8D
:100CE000FFF7E8FB00F0C2F90837BD4680BD00BF42
:100CF00014240008000000204004002040040020CC
:100D00006C17002080B400AFFEE700BF80B483B052
:100D100000AF0346FB71084B97F907205209F97998
:100D200001F01F01012000FA01F143F822100C37F5
:100D3000BD465DF8047B704700E100E080B483B0FD
:100D400000AF03463960FB7197F90730002B0BDACF
:100D50000D49FB7903F00F03043B3A68D2B212014C
:100D6000D2B20B441A7609E0084997F907303A687D
:100D7000D2B21201D2B20B4483F800230C37BD4625
:100D80005DF8047B704700BF00ED00E000E100E08B
:100D900080B582B000AF78607B68B3F1807F01D30B
:100DA000012311E00A4B7A6822F07F42013A5A602F
:100DB0004FF0FF300F21FFF7C1FF054B00229A6073
:100DC000034B07221A60002318460837BD4680BD32
:100DD00010E000E080B400AF0A4B0A4A926942F08A
:100DE00004029A61084B084A126822F0FF021A6056
:100DF000054B054A126842F022021A60BD465DF8B2
:100E0000047B7047001002400008014080B500AF2D
:100E1000FFF7E0FF80BD00BF80B400AF024B184673
:100E2000BD465DF8047B70478481214280B582B065
:100E300000AF7860204B204AD26942F48042DA61E8
:100E40001D4B1D4A926942F008029A611B4A1B4BD6
:100E5000DB6823F4704323F00303D360174B174A76
:100E6000126822F0FC021A60144B144A526892B2C3
:100E70005A60124B114A126842F010021A600F4A6F
:100E80000E4B5B6843F0144343F4110353600C4B67
:100E900040F227321A800A4B094A128892B242F075
:100EA000400292B21A80FFF7B7FF034601221A6090
:100EB0000837BD4680BD00BF00100240000C014055
:100EC0000038004080B483B000AF7860064B064A1B
:100ED000928892B242F0400292B29A800C37BD469C
:100EE0005DF8047B704700BF0038004080B582B0D9
:100EF00000AF78607868FFF799FF7B6801221A627B
:100F00007B68002283F8DC2F7B6800221A747B68E0
:100F1000012283F8DA2F0D4B9B899AB27B68A3F8E4
:100F2000D82F7B6800225A627B684FF4EC429A8586
:100F30007B680022C3F8D02F7B680022C3F8D42F2F
:100F40007868FFF7BFFF0837BD4680BD0038004016
:100F500080B483B000AF78607B6800229A617B68C0
:100F60000022DA617B6800225A627B6800229A6262
:100F70007B68022283F8DA2F7B6818460C37BD465F
:100F80005DF8047B704700BF80B582B000AF786029
:100F90007B6803F549731846FFF7DAFF00237A6888
:100FA0001946D1807A68194691801A467B681A6082
:100FB0007B6818460837BD4680BD00BF80B582B04B
:100FC00000AF7860FFF776FA0B48FFF7E1FE0346C3
:100FD000002B0CBF00230123DBB2002B00D0FEE767
:100FE0000E20FFF793FE2520FFF790FE2420FFF749
:100FF0008DFE0837BD4680BD4019010080B582B026
:1010000000AF78607868FFF7D9FF7B681033184627
:10101000FFF71EF97B6803F549731846FFF766FF73
:101020000837BD4680BD00BF80B582B000AF786094
:101030007B6893F82133DBB2002B15D07B68D3F8A3
:101040001C237B6803F59853043310461946042289
:1010500000F0D0FF7B68103318460421FFF726F913
:101060007B68002283F82123E2E700BF80B500AF50
:10107000074B084A1A600748FFF7C0FFFFF7C6FE94
:1010800062B60448FFF7D0FF0023184680BD00BFBA
:101090005C0400206004002080B582B000AF78605E
:1010A00039607B68012B07D13A684FF6FF739A428B
:1010B00002D10348FFF768FF0837BD4680BD00BF77
:1010C0006004002080B500AF01204FF6FF71FFF7EC
:1010D000E3FF80BD03685A004CBF43F0004323F098
:1010E00000431844704700BF2DE9F04F064683B017
:1010F000914621B3013901918846002707EB080486
:1011000004EBD4746410E50006EB050B5846FFF7BA
:10111000E1FF019B8246A34205F10800304419D04B
:10112000FFF7D8FFCA4500F1FF3004D9BC420BD00D
:1011300004F1FF38E2E7484502D2671CDEE78B4640
:10114000584603B0BDE8F08F4FF0000B584603B08F
:10115000BDE8F08FCA45E9D8F2E700BF012807D003
:10116000022807D0044B00280CBF18460020704707
:10117000024870470248704799180008A1180008F3
:10118000A918000830B5274B83B004468D1E002BEC
:1011900042D0284601A9AFF30080034623B32A4674
:1011A0000199FFF7A1FF054618B3FFF793FF6B689E
:1011B000A064012B12D0002B05F1040028DBFFF7FF
:1011C00089FF0023E06423650368002B16DBFFF72B
:1011D00081FF00232061184603B030BD0023236146
:1011E0000523184603B030BD23610923184603B018
:1011F00030BD09232061184603B030BDC3F303603E
:10120000FFF7ACFF0028206114BF00230923E2E7A9
:101210000123E0642365D7E7034B04481B1ADB1066
:101220000193BCE700000000142400080423000818
:10123000036810B5DA07044606D49B0700F148009E
:1012400009D500F06FFC2368590709D51A070ED598
:10125000DB0613D510BD00F05DFC23685907F5D4FB
:1012600004F1D00000F066FC23681A07F0D404F5FE
:10127000A87000F067FC2368DB06EBD404F5E87087
:10128000BDE8104000F0A2BC03680BB118447047E1
:101290001846704709207047704700BF70B5044674
:1012A0000D4608E02A6C23696261012021462A4626
:1012B0009847082808D12046296CFFF763FF0646A7
:1012C0000028EFD000F08EFE0728FBD13046296CB5
:1012D000FFF7E2FF281D00F011FC00BF2DE9F047E9
:1012E000ADF5727D0C1D03AE054617460FCC0FC63B
:1012F0000FCC0FC60FCC0FC694E80F0002AC4FF016
:10130000000ED5F80C80D5F8189086E80F00284616
:10131000216CC4F800E0FFF735FF002F064614BF2C
:101320000A27092786B1A06B2A468DE8100247F0EC
:10133000100160642B460120C04700282FD13046A1
:101340000DF5727DBDE8F087236C21466B614FF48B
:10135000F0727AA800F04EFE2B6929467AAA384628
:101360009847889B82468DE81002394663640120C5
:101370002A462B46C04790B920467AA94FF4F0720E
:1013800000F038FEBAF1080F06D12846216CFFF7AD
:10139000F9FE09270646C5E7BAF1070F04D0092070
:1013A0000DF5727DBDE8F0873046216CFFF774FFC4
:1013B00003A800F0A3FB00BF406C7047F0B5CB6BF7
:1013C000F9B00B640E1D01AD0F4604460FCE0FC5DC
:1013D0000FCE0FC50FCE0FC596E80F004FF0FF36AA
:1013E00085E80F00009606E0236921466A46984783
:1013F0000828054608D120461099FFF7C3FE0028AB
:10140000F2D0092079B0F0BD6846FFF711FF062D34
:10141000F7D120463946FFF741FF00BF30B4DD6BFE
:10142000C160826119461D64002230BCFFF756BFBF
:1014300070B54369C66804460D460B6426B10122A7
:10144000FFF74CFF00F0CEFD0369214602202A463B
:101450009847072807D0082803D120462946FFF7D8
:101460001DFF00F0BFFD3046296CFFF715FF281D5A
:1014700000F044FBC26810B432B1CC6B00220C64A3
:101480005DF8044BFFF72ABF5DF8044B96E700BFF9
:10149000704700BF08B5836813B101460120984723
:1014A00008BD00BF10B4042909D8DFE801F0070324
:1014B0000803030001205DF8044B70471BB10220B4
:1014C0005DF8044B70470F2AF9D800EB820252688E
:1014D0001846019B1A60EEE700B585B00A4603ABDB
:1014E000002100930B46FFF7DDFF039805B05DF880
:1014F00004FB00BF10B4042909D8DFE801F007039A
:101500000803030001205DF8044B70471BB1022063
:101510005DF8044B70470F2AF9D8019C00EB82025A
:10152000216818465160EEE710B584B004AB43F86B
:10153000042D0C460021009322460B46FFF7DAFFEC
:1015400004B010BDF0B5D36BADF50F7D1364151D60
:1015500017AC07460E460FCD0FC40FCD0FC40FCDED
:101560000FC495E80F004FF0FF3584E80F00169583
:1015700010E016A8FFF7D8FF314616A8B84769460D
:1015800016AA78B9049B08209847052804460AD073
:10159000092807D026996846FFF7F4FD6A460C2112
:1015A0000028E6D0092416A8FFF742FE20460DF5D4
:1015B0000F7DF0BD2DE9F04FCE6C0C4631688BB03D
:1015C00004361D4690460791089600F00309002B4B
:1015D00040F089800902032307918DF825508DF88A
:1015E0002430236DB9F1020F08BFA66B13F001037D
:1015F00042D100F00800C0B2039002933768002F78
:101600003CD0022D6BD03788B6F802A00436A36C0C
:101610002AF0010B40460F219B44FFF75DFF8345F5
:1016200036D827F001039B440AF0010A07F00107AE
:10163000584547EA4A072CBF00200120012F31D02E
:1016400060D3022F20D1336823F000410191B9F11A
:10165000000F40F0858030B1039A002A00F08D80A1
:10166000002900F0B080002BC0F28580019B03F1BF
:10167000010A06EB8A06C1E700210291022D49DD2D
:10168000FFF708FE00284BD009200BB0BDE8F08F13
:101690000AF0010A07F0010747EA4A07012F4FF055
:1016A0000000CDD1B9F1000F41D1B0B196E80C00E6
:1016B000D70F9A1CE8D004F158010133069100F0CD
:1016C000AD80301DFFF7E0FD3A46014606AB2046EF
:1016D000AFF30080002840F0CF8008368EE7D6F8C0
:1016E00004A0083693E7022B3FF77BAF0B0CDFB269
:1016F000090402228DF8253006EB870607918DF844
:1017000024206EE7B9F1000F02D0002840F090804D
:10171000043673E7404607A900F0F0FA0028B3D179
:10172000029A002A59D108200BB0BDE8F08F40463C
:101730000D21276AFFF7D0FE8742CED1A36A9E42D1
:10174000CBD13046FFF7C6FC0F2102464046FFF7DB
:10175000EBFE404622460021FFF7E6FE072094E715
:1017600040460D21276AFFF7B7FE874245D0336810
:10177000002BBFF67BAF043678E7019919B304F16B
:10178000580CCDF810900595371DDDF80CB0DDF83C
:101790000490654602E0CA4515D0D3463846069502
:1017A000FFF772FD0022014606AB2046AFF3008032
:1017B0000BF1010A04370028EDD0019BDDF81090F1
:1017C0005B45059DD3D140460D21FFF785FE069B65
:1017D0002062A6626362062057E70F214046FFF7AA
:1017E0007BFE0E2102464046FFF79EFE40460F213B
:1017F000284AFFF799FE072047E7A36A9E42B6D121
:10180000042201990027B318A162E762226363638F
:101810003368BB421FDB0122029227E740460D21BD
:10182000FFF75AFE2062069B6362A66206202CE741
:101830003046FFF74FFC04360546A6632046AFF35B
:10184000008000283FF420AF40462A460F21FFF7D2
:101850006BFE072019E7481C06EB8000FFF73AFCF7
:101860000F2102464046FFF75FFE404639462246BA
:10187000FFF75AFE072008E707460D214046FFF70D
:101880002BFE022F2062CED1069A234643F82C2F3E
:101890006362CAE7000000000023FFF78BBE00BFB1
:1018A0000123FFF787BE00BF0223FFF783BE00BFFF
:1018B0002DE9F0410446C4B004290BD8DFE801F05B
:1018C00059030A300E00012B4FEA124596B266D03A
:1018D000052B6BD0022044B0BDE8F081002BF9D17C
:1018E000102AF7D82368D90600F1D38022AE3046FB
:1018F000019200F075F9A56B019A0023012000FA0E
:1019000003F1114203D02968043546F8231001334E
:10191000042BF4D13046A56300F058F90020DAE733
:10192000032BD7D1150C97B27B19102BD2D8236873
:101930001E0700F1BF8022AE304600F025F9D4F832
:1019400038E07F0006EBC5007B1E72465FB1CEEB30
:101950000000AEF1040252F8041F013B5D1C8150EF
:10196000F9D10EEB87023046A26300F0EBF80020BD
:10197000B1E7002BAED1A56B96B2012000FA03F1BE
:10198000314204D02F6804EB830104354F600133EA
:10199000102BF3D112F4005075D1A5639BE7721997
:1019A000102A97D80F2D95D8002708E07719202FF7
:1019B00090D80F2D69D9374646B30F2D11D822681C
:1019C000D0070ED522F00101052B216000F08C809C
:1019D00022F00302204640F8482B019300F09EF8C5
:1019E000019B17B1226851076CD4012B74D00F2DC5
:1019F00004D822A8019300F099F8019B37B102A8FE
:101A0000019300F09BF8019BC5F11006D4F83880D3
:101A1000002EC44612DD22AA4FEA460C02EBC50690
:101A2000C8EB06060CF1FF31A8F1040252F8040FCE
:101A30000139B050481CF9D108EB8C0CB7B144AA5D
:101A4000102D2CBF2846102002EBC0004FEA47089B
:101A5000A0F5C47008F1FF32614651F8046B013AF9
:101A600040F8046B561CF8D10CEB880C012B1AD0F3
:101A70000F2DC4F838C002D822A800F053F817B1CF
:101A800002A800F057F8002025E7102F8CD9103F4E
:101A900093E723F01003236004F5E870019200F04F
:101AA0009FF8019A22E70CF10403A36322A800F037
:101AB00031F8E8E723F00803236004F5A87000F08C
:101AC00063F838E722F00402204640F8D02B019357
:101AD00000F034F8019B88E722A8019300F01EF87B
:101AE000019B002F90D191E741F00201204640F880
:101AF000481B019300F01AF8019B72E700F13401D2
:101B000091E838009C46A6464CF8045D90E8FF0F2B
:101B1000E54600BD90EC210B704700BF80EC210B27
:101B2000704700BF90EC200B704700BF80EC200B8B
:101B3000704700BFD0EC200B704700BFC0EC200BFB
:101B4000704700BFF0EC0201F0EC0211F0EC022152
:101B5000F0EC0231F0EC0241F0EC0251F0EC0261E9
:101B6000F0EC0271F0EC0281F0EC0291F0EC02A1D9
:101B7000F0EC02B1F0EC02C1F0EC02D1F0EC02E1C9
:101B8000F0EC02F1704700BFE0EC0201E0EC021162
:101B9000E0EC0221E0EC0231E0EC0241E0EC025129
:101BA000E0EC0261E0EC0271E0EC0281E0EC029119
:101BB000E0EC02A1E0EC02B1E0EC02C1E0EC02D109
:101BC000E0EC02E1E0EC02F1704700BFB0FC018103
:101BD000B0FC0191B0FC01A1B0FC01B1704700BFA5
:101BE000A0FC0181A0FC0191A0FC01A1A0FC01B11D
:101BF000704700BFEC4600B52DE900502DE9FF1FEE
:101C00004FF000032DE90C0001A9FFF7D7FBDDF829
:101C100040E012B0704700BFEC4600B52DE900501F
:101C20002DE9FF1F4FF000032DE90C0001A9FFF77C
:101C3000FFFBDDF840E012B0704700BFEC4600B596
:101C40002DE900502DE9FF1F4FF000032DE90C0096
:101C500001A9FFF70FFCDDF840E012B0704700BFAC
:101C6000EC4600B52DE900502DE9FF1F4FF00003B1
:101C70002DE90C0001ABFFF7D1FBDDF840E012B01D
:101C8000704700BFEC4600B52DE900502DE9FF1F5D
:101C90004FF000032DE90C0001AAFFF753FCDDF81B
:101CA00040E012B0704700BF037A1BB9437A43B9D2
:101CB000B02070470268013B037213020360100EEC
:101CC00070474268013B4372111D1268032303727F
:101CD000130241600360100E704700BF00B585B06D
:101CE00003AB002100930C220B46FFF7DBFB0398AC
:101CF00005B05DF804FB00BFFFF7F0BF2DE9F0432E
:101D0000064685B00D464FF000082846FFF7CCFF89
:101D1000B028044600F0AC8020F07F0212F0FF01F2
:101D200020D000F0F002802A73D0902A36D0A02A6A
:101D300042D0B02A56D0C02A00F0828000F0F803CA
:101D4000D02B0BD100F00704621C42F40022304675
:101D500001210523FFF7ACFD0028D6D0092005B0EE
:101D6000BDE8F08303AF4FEA80090B460097304689
:101D70000D22FFF797FB5FFA89F9039B09F104092C
:101D800060064CBFC9EB03034B440393002100974B
:101D90000B4630460D22FFF7ADFBB6E700F00D0312
:101DA0000D2BDBD003AF002100F00F0200970B4694
:101DB0003046FFF777FBE9E7C2434FF47F6302F059
:101DC000070243FA02F2010702EA03024FF00001A0
:101DD00048BF42F480420B463046FFF769FD0028B9
:101DE000BCD192E7B12848D0B22851D0B3287DD0D9
:101DF00000F0FC03B42BB1D000F007020132012146
:101E000042F400220B463046FFF752FD0028A5D1D0
:101E10007BE72846FFF748FF24022043B0F5004F38
:101E20009CD004010021A2B20B463046FFF740FDD2
:101E3000002893D114F4004F18BF4FF0010864E755
:101E4000C6285FD0C72869D000F0F803C02B78D02F
:101E5000C82800F08E80C92880D12846FFF724FFCB
:101E600000F00F03013300F0F00243EA02326EE7A4
:101E7000B8F1000F6CD0002071E72846FFF714FF7F
:101E8000024600283FF46AAF10F0F001BAD065E7CF
:101E9000002103AF0D220B4600973046FFF702FBEF
:101EA0002846FFF701FF02064FF002040DD500F0AF
:101EB0007F0000FA04F2039B284613440393FFF7C4
:101EC000F3FE030604F10704F1D400F07F0000FAEA
:101ED00004F4039B002103F501731C4400970B4697
:101EE00030460D220394FFF705FB0EE72846FFF767
:101EF000DBFE00F00F03013300F0F002012143EAA2
:101F000002327FE72846FFF7CFFE00F00F030133D0
:101F100000F0F002032143EA023273E72846FFF79C
:101F2000C3FE024600283FF419AF10F0F0037FF41F
:101F300015AF30460421FFF7BBFC00287FF40EAF3D
:101F4000E3E600F00F020132032142F4202259E7B8
:101F500003AC41460E22434600943046FFF7A2FAF6
:101F60000094304641460F224346FFF7C3FA4046ED
:101F7000F5E62846FFF798FE00F0F00200F00F03A8
:101F80001032013343EA0232E1E600BF10B5C36C00
:101F900084B003225C688DF80C20DA790846083397
:101FA000240201A901948DF80D200293FFF7A6FEEB
:101FB00004B010BD08B5FFF79FFE806C08BD00BFE0
:101FC00008B5FFF799FEC36CDA7903EB820008309D
:101FD00008BD00BF08B500F005F800BF08B500F067
:101FE00001F800BF08B5062000F0A6F8012000F0B7
:101FF0004DF900BF844641EA000313F0030349D1C1
:10200000403A23D30B6803604B6843608B6883605E
:10201000CB68C3600B6903614B6943618B69836162
:10202000CB69C3610B6A03624B6A43628B6A83624A
:10203000CB6AC3620B6B03634B6B43638B6B836332
:10204000CB6BC36340304031403ADBD230320BD3EC
:102050000B6803604B6843608B688360CB68C36028
:1020600010301031103AF3D20C3205D351F8043B42
:1020700040F8043B043AF9D2043208D0D2071CBF1E
:1020800011F8013B00F8013B01D30B880380604647
:10209000704700BF082A13D38B07B1D010F0030399
:1020A000AED0C3F10403D21ADB071CBF11F8013B09
:1020B00000F8013BA4D331F8023B20F8023B9FE734
:1020C000043AD9D3013A11F8013B00F8013BF9D2A7
:1020D0000B7803704B7843708B7883706046704741
:1020E0001F2938B50C46054620D8D0F8DC229AB115
:1020F00052F8213083B1012B0CD0591C06D0002599
:10210000204642F824509847284638BD16230360DD
:10211000012038BD002038BD284600F029F82246AD
:1021200001462846BDE8384000F00EB8162303608B
:102130004FF0FF3038BD00BF024B01461868FFF773
:10214000CFBF00BF2804002038B5084C0023054647
:1021500008461146236000F091F8431C00D038BDBA
:102160002368002BFBD02B6038BD00BF6817002010
:1021700000F07CB8024B13B1024800F005B870477C
:102180000000000095210008014600200246034699
:1021900000F018B838B5094D094C641BA41018BFDD
:1021A00005EB840505D0013C55F8043D9847002C0B
:1021B000F9D1BDE8384000F071B800BF3804002004
:1021C0003C040020F0B5274C85B026680746D6F8B9
:1021D0004841002C40D065681F2D1EDD224818B9EB
:1021E0004FF0FF3005B0F0BD4FF4C870039102927C
:1021F0000193AFF3008003990446029A019B0028E3
:10220000EED0D6F848510020256060600546C6F83B
:102210004841C4F88801C4F88C013FB96B1C002008
:102220000235636044F8251005B0F0BD0126AE40CC
:1022300004EB8500C0F88820D4F88821022F42EAF8
:102240000602C4F88821C0F80831E7D1D4F88C31EF
:102250001E43C4F88C61E1E706F5A674C6F8484150
:10226000B9E700BFAC22000800000000024B582272
:102270001A604FF0FF30704768170020024B582259
:102280001A604FF0FF30704768170020FEE700BF6C
:10229000F8B500BFF8BC08BC9E467047F8B500BF53
:1022A000F8BC08BC9E4670474300000000000020B8
:1022B00001970181B0B008840000000001970181FE
:1022C000B0B008840000000001970181B0B008841C
:1022D0000000000001970181B0B0088400000000F8
:1022E00008B10181B0B000840000000008B1018194
:1022F000B0B000840000000008B10181B0B00084DB
:0423000000000000D9
:102304005CDEFF7F01000000A8E8FF7FA0FFFF7FE5
:1023140034E9FF7F010000005CE9FF7F08849780B7
:1023240068E9FF7F0100000090ECFF7F8CFFFF7FD6
:10233400C8ECFF7F90FFFF7FECECFF7F94FFFF7FF3
:1023440028EDFF7F088497804CEDFF7F010000009B
:1023540030EEFF7FB0A90280D4EEFF7FB0B0A8803A
:1023640024EFFF7F0100000030EFFF7FB0B0AA80B0
:1023740068EFFF7FAE71B2803CF0FF7F0100000088
:1023840038F0FF7FAB3F388090F0FF7F0100000002
:102394009CF0FF7FB0B0AA80D8F0FF7F010000005E
:1023A400F0F0FF7F38FFFF7FF8F0FF7F01000000AF
:1023B40090F1FF7FAB0EB280F8F1FF7FB0AF0A80DF
:1023C400D4F4FF7F01000000E4F4FF7FAC3F0380FE
:1023D40028F7FF7F0100000000F9FF7F00840480DC
:1023E40014F9FF7F0100000010F9FF7FB0AD0480F5
:1023F40098FBFF7FB0A80380B8FBFF7FECFEFF7F54
:10240400BCFBFF7FF0FEFF7FC8FBFF7F01000000E5
:1024140000000000EC02002054030020BC03002054
:1024240000000000000000000000000000000000A8
:102434000000000000000000000000000000000098
:1024440000000000A82200080000000000000000B6
:102454000000000000000000000000000000000078
:102464000000000000000000000000000000000068
:102474000000000000000000000000000000000058
:102484000000000000000000000000000000000048
:102494000000000000000000000000000000000038
:1024A4000000000000000000000000000000000028
:1024B4000000000000000000010000000000000017
:1024C4000E33CDAB34126DE6ECDE05000B000000DC
:1024D40000000000000000000000000000000000F8
:1024E40000000000000000000000000000000000E8
:1024F40000000000000000000000000000000000D8
:1025040000000000000000000000000000000000C7
:1028340000000000000000000000002075210008D6
:1028440031010008C51000080D0100080000000057
:0400000508000000EF
:00000001FF
